:100000001DC024C023C022C021C020C01FC01EC0EC
:100010001DC01CC01BC01AC019C018C017C00000EA
:100020000000370000000000380002020202020255
:1000300001020408102001030000040011241FBE67
:10004000CFE5D2E0DEBFCDBF88D0D5C0D9CF8F7786
:1000500087B987B187B9369A3699FECF84B195B101
:10006000089590E0FC01EA5CFF4F3491FC01E05DF3
:10007000FF4F2491FC01E65DFF4FE491EE23B9F0C0
:10008000332329F03130A1F48AB58F778ABDF0E0AF
:10009000EE0FFF1FEC5DFF4FA591B4918FB761117B
:1000A00018C0F894EC9120952E232C938FBF0895BF
:1000B000323019F48AB58F7DE9CF333021F480B71F
:1000C0008F7D80BFE4CF343011F78CB58F7D8CBD30
:1000D000DECFF894EC912E2BE8CFCF93DF9387FF00
:1000E00007C08F7769F1813069F1823069F183E06F
:1000F00090E0FC01E05DFF4F2491865D9F4FFC0185
:1001000084918823D1F090E0880F991FFC01E25E72
:10011000FF4FA591B491FC01EC5DFF4FC591D491C7
:10012000611114C09FB7F8948C91E22FE0958E2353
:100130008C932881E223E8839FBFDF91CF910895BC
:1001400085E0D6CF82E0D4CF84E0D2CF8FB7F894C9
:10015000EC91E22BEC938FBFF0CF83E08ABD83BF9D
:10016000789480E48CBD8FEF8DBD87EC80BF87E8ED
:1001700086B960E080E8B1DF60E081E8AEDF60E092
:1001800082E8ABDF60E083E8A8DF61E081E0A5DF23
:1001900061E080E0A2DF60E080E063DF60E081E0BA
:1001A00060DF81E854DF83607C0182E850DF8C01EE
:1001B000036083E84CDFEC0180E849DF8130934045
:1001C00070F40E151F0528F461E081E04ADF60E05D
:1001D00004C060E081E045DF61E080E0E1CF61E004
:1001E0000E151F0508F060E081E03BDFC3600C17CF
:0A01F0001D0768F7F1CFF894FFCF68
:00000001FF
